{
  "address": "0xBa29eB644831a801E86EEFAE9BACf87332335659",
  "abi": [
    {
      "inputs": [
        {
          "internalType": "address",
          "name": "vrfCoordinatorV2",
          "type": "address"
        },
        {
          "internalType": "uint256",
          "name": "entranceFee",
          "type": "uint256"
        },
        {
          "internalType": "bytes32",
          "name": "gasLane",
          "type": "bytes32"
        },
        {
          "internalType": "uint64",
          "name": "subscriptionId",
          "type": "uint64"
        },
        {
          "internalType": "uint32",
          "name": "callbackGasLimit",
          "type": "uint32"
        },
        {
          "internalType": "uint256",
          "name": "interval",
          "type": "uint256"
        }
      ],
      "stateMutability": "nonpayable",
      "type": "constructor"
    },
    {
      "inputs": [],
      "name": "Lottery__NotEnoughETHEntered",
      "type": "error"
    },
    {
      "inputs": [],
      "name": "Lottery__NotOpen",
      "type": "error"
    },
    {
      "inputs": [],
      "name": "Lottery__TransferFailed",
      "type": "error"
    },
    {
      "inputs": [
        {
          "internalType": "uint256",
          "name": "currentBalance",
          "type": "uint256"
        },
        {
          "internalType": "uint256",
          "name": "numPlayers",
          "type": "uint256"
        },
        {
          "internalType": "uint256",
          "name": "lotteryState",
          "type": "uint256"
        }
      ],
      "name": "Lottery__UpkeepNotNeeded",
      "type": "error"
    },
    {
      "inputs": [
        {
          "internalType": "address",
          "name": "have",
          "type": "address"
        },
        {
          "internalType": "address",
          "name": "want",
          "type": "address"
        }
      ],
      "name": "OnlyCoordinatorCanFulfill",
      "type": "error"
    },
    {
      "anonymous": false,
      "inputs": [
        {
          "indexed": true,
          "internalType": "address",
          "name": "player",
          "type": "address"
        }
      ],
      "name": "LotteryEnter",
      "type": "event"
    },
    {
      "anonymous": false,
      "inputs": [
        {
          "indexed": true,
          "internalType": "uint256",
          "name": "requestId",
          "type": "uint256"
        }
      ],
      "name": "RequestedLotteryWinner",
      "type": "event"
    },
    {
      "anonymous": false,
      "inputs": [
        {
          "indexed": true,
          "internalType": "address",
          "name": "winner",
          "type": "address"
        }
      ],
      "name": "WinnerPicked",
      "type": "event"
    },
    {
      "inputs": [
        {
          "internalType": "bytes",
          "name": "",
          "type": "bytes"
        }
      ],
      "name": "checkUpkeep",
      "outputs": [
        {
          "internalType": "bool",
          "name": "upkeepNeeded",
          "type": "bool"
        },
        {
          "internalType": "bytes",
          "name": "performData",
          "type": "bytes"
        }
      ],
      "stateMutability": "view",
      "type": "function"
    },
    {
      "inputs": [],
      "name": "enterLottery",
      "outputs": [],
      "stateMutability": "payable",
      "type": "function"
    },
    {
      "inputs": [],
      "name": "getEntranceFee",
      "outputs": [
        {
          "internalType": "uint256",
          "name": "",
          "type": "uint256"
        }
      ],
      "stateMutability": "view",
      "type": "function"
    },
    {
      "inputs": [],
      "name": "getInterval",
      "outputs": [
        {
          "internalType": "uint256",
          "name": "",
          "type": "uint256"
        }
      ],
      "stateMutability": "view",
      "type": "function"
    },
    {
      "inputs": [],
      "name": "getLatestTimeStamp",
      "outputs": [
        {
          "internalType": "uint256",
          "name": "",
          "type": "uint256"
        }
      ],
      "stateMutability": "view",
      "type": "function"
    },
    {
      "inputs": [],
      "name": "getLotteryState",
      "outputs": [
        {
          "internalType": "enum Lottery.LotteryState",
          "name": "",
          "type": "uint8"
        }
      ],
      "stateMutability": "view",
      "type": "function"
    },
    {
      "inputs": [],
      "name": "getNumWords",
      "outputs": [
        {
          "internalType": "uint256",
          "name": "",
          "type": "uint256"
        }
      ],
      "stateMutability": "pure",
      "type": "function"
    },
    {
      "inputs": [],
      "name": "getNumberOfPlayers",
      "outputs": [
        {
          "internalType": "uint256",
          "name": "",
          "type": "uint256"
        }
      ],
      "stateMutability": "view",
      "type": "function"
    },
    {
      "inputs": [
        {
          "internalType": "uint256",
          "name": "index",
          "type": "uint256"
        }
      ],
      "name": "getPlayer",
      "outputs": [
        {
          "internalType": "address",
          "name": "",
          "type": "address"
        }
      ],
      "stateMutability": "view",
      "type": "function"
    },
    {
      "inputs": [],
      "name": "getRecentWinner",
      "outputs": [
        {
          "internalType": "address",
          "name": "",
          "type": "address"
        }
      ],
      "stateMutability": "view",
      "type": "function"
    },
    {
      "inputs": [],
      "name": "getRequestConfirmations",
      "outputs": [
        {
          "internalType": "uint256",
          "name": "",
          "type": "uint256"
        }
      ],
      "stateMutability": "pure",
      "type": "function"
    },
    {
      "inputs": [
        {
          "internalType": "bytes",
          "name": "",
          "type": "bytes"
        }
      ],
      "name": "performUpkeep",
      "outputs": [],
      "stateMutability": "nonpayable",
      "type": "function"
    },
    {
      "inputs": [
        {
          "internalType": "uint256",
          "name": "requestId",
          "type": "uint256"
        },
        {
          "internalType": "uint256[]",
          "name": "randomWords",
          "type": "uint256[]"
        }
      ],
      "name": "rawFulfillRandomWords",
      "outputs": [],
      "stateMutability": "nonpayable",
      "type": "function"
    }
  ],
  "transactionHash": "0x14a0ddc35802f81470386d9d8ce079b52f4199398fc609cbf98b3f0c52e709f7",
  "args": [
    "0x6168499c0cFfCaCD319c818142124B7A15E857ab",
    "10000000000000000",
    "0xd89b2bf150e3b9e13446986e571fb9cab24b13cea0a43ea20a6049a85cc807cc",
    "8664",
    "500000",
    "120"
  ],
  "numDeployments": 8,
  "solcInputHash": "ab02e8e2bc87a66681149cdcfafd892e",
  "bytecode": "0x6101606040523480156200001257600080fd5b5060405162001875380380620018758339818101604052810190620000389190620001ad565b858073ffffffffffffffffffffffffffffffffffffffff1660808173ffffffffffffffffffffffffffffffffffffffff1660601b81525050508460a081815250508573ffffffffffffffffffffffffffffffffffffffff1660c08173ffffffffffffffffffffffffffffffffffffffff1660601b815250508360e081815250508267ffffffffffffffff166101008167ffffffffffffffff1660c01b815250508163ffffffff166101208163ffffffff1660e01b815250506000600160146101000a81548160ff02191690836001811115620001195762000118620002b5565b5b0217905550426002819055508061014081815250505050505050506200036b565b6000815190506200014b81620002e9565b92915050565b600081519050620001628162000303565b92915050565b60008151905062000179816200031d565b92915050565b600081519050620001908162000337565b92915050565b600081519050620001a78162000351565b92915050565b60008060008060008060c08789031215620001cd57620001cc620002e4565b5b6000620001dd89828a016200013a565b9650506020620001f089828a0162000168565b95505060406200020389828a0162000151565b94505060606200021689828a0162000196565b93505060806200022989828a016200017f565b92505060a06200023c89828a0162000168565b9150509295509295509295565b6000620002568262000267565b9050919050565b6000819050919050565b600073ffffffffffffffffffffffffffffffffffffffff82169050919050565b6000819050919050565b600063ffffffff82169050919050565b600067ffffffffffffffff82169050919050565b7f4e487b7100000000000000000000000000000000000000000000000000000000600052602160045260246000fd5b600080fd5b620002f48162000249565b81146200030057600080fd5b50565b6200030e816200025d565b81146200031a57600080fd5b50565b620003288162000287565b81146200033457600080fd5b50565b620003428162000291565b81146200034e57600080fd5b50565b6200035c81620002a1565b81146200036857600080fd5b50565b60805160601c60a05160c05160601c60e0516101005160c01c6101205160e01c6101405161148e620003e76000396000818161068701526107310152600061051f015260006104fc015260006104db0152600061049f0152600081816102fa01526107570152600081816103200152610374015261148e6000f3fe6080604052600436106100c25760003560e01c80635f1b0fd81161007f57806391ad27b41161005957806391ad27b414610259578063c1af578514610284578063e55ae4e81461028e578063fd6673f5146102cb576100c2565b80635f1b0fd8146101c55780636b68c03c146101f05780636e04ff0d1461021b576100c2565b806309bc33a7146100c75780631fe543e3146100f2578063320229eb1461011b5780634585e33b14610146578063473f1ddc1461016f57806353a2c19a1461019a575b600080fd5b3480156100d357600080fd5b506100dc6102f6565b6040516100e99190611094565b60405180910390f35b3480156100fe57600080fd5b5061011960048036038101906101149190610e6d565b61031e565b005b34801561012757600080fd5b506101306103de565b60405161013d9190611094565b60405180910390f35b34801561015257600080fd5b5061016d60048036038101906101689190610d7d565b6103e8565b005b34801561017b57600080fd5b506101846105e7565b6040516101919190610fb2565b60405180910390f35b3480156101a657600080fd5b506101af610611565b6040516101bc9190611094565b60405180910390f35b3480156101d157600080fd5b506101da610620565b6040516101e79190611094565b60405180910390f35b3480156101fc57600080fd5b5061020561062d565b6040516102129190611079565b60405180910390f35b34801561022757600080fd5b50610242600480360381019061023d9190610dca565b610644565b604051610250929190610ff6565b60405180910390f35b34801561026557600080fd5b5061026e61072d565b60405161027b9190611094565b60405180910390f35b61028c610755565b005b34801561029a57600080fd5b506102b560048036038101906102b09190610e13565b6108c4565b6040516102c29190610fb2565b60405180910390f35b3480156102d757600080fd5b506102e061090b565b6040516102ed9190611094565b60405180910390f35b60007f0000000000000000000000000000000000000000000000000000000000000000905090565b7f000000000000000000000000000000000000000000000000000000000000000073ffffffffffffffffffffffffffffffffffffffff163373ffffffffffffffffffffffffffffffffffffffff16146103d057337f00000000000000000000000000000000000000000000000000000000000000006040517f1cf993f40000000000000000000000000000000000000000000000000000000081526004016103c7929190610fcd565b60405180910390fd5b6103da8282610917565b5050565b6000600254905090565b600061040260405180602001604052806000815250610644565b509050806104715747600080549050600160149054906101000a900460ff1660018111156104335761043261136e565b5b6040517f6e195f25000000000000000000000000000000000000000000000000000000008152600401610468939291906110af565b60405180910390fd5b60018060146101000a81548160ff021916908360018111156104965761049561136e565b5b021790555060007f000000000000000000000000000000000000000000000000000000000000000073ffffffffffffffffffffffffffffffffffffffff16635d3b1d307f00000000000000000000000000000000000000000000000000000000000000007f000000000000000000000000000000000000000000000000000000000000000060037f000000000000000000000000000000000000000000000000000000000000000060016040518663ffffffff1660e01b8152600401610560959493929190611026565b602060405180830381600087803b15801561057a57600080fd5b505af115801561058e573d6000803e3d6000fd5b505050506040513d601f19601f820116820180604052508101906105b29190610e40565b9050807febf56642252004c18a776f30d528e7a0ce8c5db14b6596fb6550f630c8a24c6c60405160405180910390a250505050565b6000600160009054906101000a900473ffffffffffffffffffffffffffffffffffffffff16905090565b6000600163ffffffff16905090565b6000600361ffff16905090565b6000600160149054906101000a900460ff16905090565b600060606000600160149054906101000a900460ff16600181111561066c5761066b61136e565b5b600060018111156106805761067f61136e565b5b14905060007f0000000000000000000000000000000000000000000000000000000000000000600254426106b4919061118f565b11905060006002600080549050119050600080471190508280156106d55750835b80156106de5750805b80156106e75750815b9550856040518060400160405280600381526020017f30783000000000000000000000000000000000000000000000000000000000008152509550955050505050915091565b60007f0000000000000000000000000000000000000000000000000000000000000000905090565b7f00000000000000000000000000000000000000000000000000000000000000003410156107af576040517fec269fd100000000000000000000000000000000000000000000000000000000815260040160405180910390fd5b600060018111156107c3576107c261136e565b5b600160149054906101000a900460ff1660018111156107e5576107e461136e565b5b1461081c576040517fe76be6fc00000000000000000000000000000000000000000000000000000000815260040160405180910390fd5b6000339080600181540180825580915050600190039060005260206000200160009091909190916101000a81548173ffffffffffffffffffffffffffffffffffffffff021916908373ffffffffffffffffffffffffffffffffffffffff1602179055503373ffffffffffffffffffffffffffffffffffffffff167f1d64fb5ba9f2548c5b98468d58f25b87b9e866afee0122e92d9fe722bf85076c60405160405180910390a2565b60008082815481106108d9576108d861139d565b5b9060005260206000200160009054906101000a900473ffffffffffffffffffffffffffffffffffffffff169050919050565b60008080549050905090565b60008080549050826000815181106109325761093161139d565b5b602002602001015161094491906112df565b9050600080828154811061095b5761095a61139d565b5b9060005260206000200160009054906101000a900473ffffffffffffffffffffffffffffffffffffffff16905080600160006101000a81548173ffffffffffffffffffffffffffffffffffffffff021916908373ffffffffffffffffffffffffffffffffffffffff1602179055506000600160146101000a81548160ff021916908360018111156109ef576109ee61136e565b5b0217905550600067ffffffffffffffff811115610a0f57610a0e6113cc565b5b604051908082528060200260200182016040528015610a3d5781602001602082028036833780820191505090505b5060009080519060200190610a53929190610b48565b504260028190555060008173ffffffffffffffffffffffffffffffffffffffff1647604051610a8190610f9d565b60006040518083038185875af1925050503d8060008114610abe576040519150601f19603f3d011682016040523d82523d6000602084013e610ac3565b606091505b5050905080610afe576040517f1c94012000000000000000000000000000000000000000000000000000000000815260040160405180910390fd5b8173ffffffffffffffffffffffffffffffffffffffff167f5b690ec4a06fe979403046eaeea5b3ce38524683c3001f662c8b5a829632f7df60405160405180910390a25050505050565b828054828255906000526020600020908101928215610bc1579160200282015b82811115610bc05782518260006101000a81548173ffffffffffffffffffffffffffffffffffffffff021916908373ffffffffffffffffffffffffffffffffffffffff16021790555091602001919060010190610b68565b5b509050610bce9190610bd2565b5090565b5b80821115610beb576000816000905550600101610bd3565b5090565b6000610c02610bfd8461110b565b6110e6565b90508083825260208201905082856020860282011115610c2557610c24611405565b5b60005b85811015610c555781610c3b8882610d53565b845260208401935060208301925050600181019050610c28565b5050509392505050565b6000610c72610c6d84611137565b6110e6565b905082815260208101848484011115610c8e57610c8d61140a565b5b610c9984828561126c565b509392505050565b600082601f830112610cb657610cb5611400565b5b8135610cc6848260208601610bef565b91505092915050565b60008083601f840112610ce557610ce4611400565b5b8235905067ffffffffffffffff811115610d0257610d016113fb565b5b602083019150836001820283011115610d1e57610d1d611405565b5b9250929050565b600082601f830112610d3a57610d39611400565b5b8135610d4a848260208601610c5f565b91505092915050565b600081359050610d6281611441565b92915050565b600081519050610d7781611441565b92915050565b60008060208385031215610d9457610d93611414565b5b600083013567ffffffffffffffff811115610db257610db161140f565b5b610dbe85828601610ccf565b92509250509250929050565b600060208284031215610de057610ddf611414565b5b600082013567ffffffffffffffff811115610dfe57610dfd61140f565b5b610e0a84828501610d25565b91505092915050565b600060208284031215610e2957610e28611414565b5b6000610e3784828501610d53565b91505092915050565b600060208284031215610e5657610e55611414565b5b6000610e6484828501610d68565b91505092915050565b60008060408385031215610e8457610e83611414565b5b6000610e9285828601610d53565b925050602083013567ffffffffffffffff811115610eb357610eb261140f565b5b610ebf85828601610ca1565b9150509250929050565b610ed2816111c3565b82525050565b610ee1816111d5565b82525050565b610ef0816111e1565b82525050565b6000610f0182611168565b610f0b8185611173565b9350610f1b81856020860161127b565b610f2481611419565b840191505092915050565b610f388161125a565b82525050565b6000610f4b600083611184565b9150610f568261142a565b600082019050919050565b610f6a816111fe565b82525050565b610f798161122c565b82525050565b610f8881611236565b82525050565b610f9781611246565b82525050565b6000610fa882610f3e565b9150819050919050565b6000602082019050610fc76000830184610ec9565b92915050565b6000604082019050610fe26000830185610ec9565b610fef6020830184610ec9565b9392505050565b600060408201905061100b6000830185610ed8565b818103602083015261101d8184610ef6565b90509392505050565b600060a08201905061103b6000830188610ee7565b6110486020830187610f8e565b6110556040830186610f61565b6110626060830185610f7f565b61106f6080830184610f7f565b9695505050505050565b600060208201905061108e6000830184610f2f565b92915050565b60006020820190506110a96000830184610f70565b92915050565b60006060820190506110c46000830186610f70565b6110d16020830185610f70565b6110de6040830184610f70565b949350505050565b60006110f0611101565b90506110fc82826112ae565b919050565b6000604051905090565b600067ffffffffffffffff821115611126576111256113cc565b5b602082029050602081019050919050565b600067ffffffffffffffff821115611152576111516113cc565b5b61115b82611419565b9050602081019050919050565b600081519050919050565b600082825260208201905092915050565b600081905092915050565b600061119a8261122c565b91506111a58361122c565b9250828210156111b8576111b7611310565b5b828203905092915050565b60006111ce8261120c565b9050919050565b60008115159050919050565b6000819050919050565b60008190506111f98261142d565b919050565b600061ffff82169050919050565b600073ffffffffffffffffffffffffffffffffffffffff82169050919050565b6000819050919050565b600063ffffffff82169050919050565b600067ffffffffffffffff82169050919050565b6000611265826111eb565b9050919050565b82818337600083830152505050565b60005b8381101561129957808201518184015260208101905061127e565b838111156112a8576000848401525b50505050565b6112b782611419565b810181811067ffffffffffffffff821117156112d6576112d56113cc565b5b80604052505050565b60006112ea8261122c565b91506112f58361122c565b9250826113055761130461133f565b5b828206905092915050565b7f4e487b7100000000000000000000000000000000000000000000000000000000600052601160045260246000fd5b7f4e487b7100000000000000000000000000000000000000000000000000000000600052601260045260246000fd5b7f4e487b7100000000000000000000000000000000000000000000000000000000600052602160045260246000fd5b7f4e487b7100000000000000000000000000000000000000000000000000000000600052603260045260246000fd5b7f4e487b7100000000000000000000000000000000000000000000000000000000600052604160045260246000fd5b600080fd5b600080fd5b600080fd5b600080fd5b600080fd5b600080fd5b6000601f19601f8301169050919050565b50565b6002811061143e5761143d61136e565b5b50565b61144a8161122c565b811461145557600080fd5b5056fea2646970667358221220f932f16865d7c921c18e10270bfc29801f2c6c10cd927821f2d90ae9f4980ac464736f6c63430008070033",
  "devdoc": {
    "kind": "dev",
    "methods": {},
    "version": 1
  },
  "userdoc": {
    "kind": "user",
    "methods": {},
    "version": 1
  },
  "storageLayout": {
    "storage": [
      {
        "astId": 869,
        "contract": "contracts/Lottery.sol:Lottery",
        "label": "s_players",
        "offset": 0,
        "slot": "0",
        "type": "t_array(t_address_payable)dyn_storage"
      },
      {
        "astId": 888,
        "contract": "contracts/Lottery.sol:Lottery",
        "label": "s_recentWinner",
        "offset": 0,
        "slot": "1",
        "type": "t_address"
      },
      {
        "astId": 891,
        "contract": "contracts/Lottery.sol:Lottery",
        "label": "s_lotteryState",
        "offset": 20,
        "slot": "1",
        "type": "t_enum(LotteryState)866"
      },
      {
        "astId": 893,
        "contract": "contracts/Lottery.sol:Lottery",
        "label": "s_lastTimeStamp",
        "offset": 0,
        "slot": "2",
        "type": "t_uint256"
      }
    ],
    "types": {
      "t_address": {
        "encoding": "inplace",
        "label": "address",
        "numberOfBytes": "20"
      },
      "t_address_payable": {
        "encoding": "inplace",
        "label": "address payable",
        "numberOfBytes": "20"
      },
      "t_array(t_address_payable)dyn_storage": {
        "base": "t_address_payable",
        "encoding": "dynamic_array",
        "label": "address payable[]",
        "numberOfBytes": "32"
      },
      "t_enum(LotteryState)866": {
        "encoding": "inplace",
        "label": "enum Lottery.LotteryState",
        "numberOfBytes": "1"
      },
      "t_uint256": {
        "encoding": "inplace",
        "label": "uint256",
        "numberOfBytes": "32"
      }
    }
  }
}